{
	"data": {
		"bytecode": {
			"linkReferences": {},
			"object": "608060405234801561001057600080fd5b50610442806100206000396000f3fe608060405234801561001057600080fd5b50600436106100625760003560e01c80630193c894146100675780632e64cec11461008357806333376eb8146100a15780634925df20146100bd5780636057361d146100d9578063fca684c7146100f5575b600080fd5b610081600480360381019061007c9190610217565b610111565b005b61008b610151565b6040516100989190610262565b60405180910390f35b6100bb60048036038101906100b69190610217565b61015a565b005b6100d760048036038101906100d29190610217565b61017a565b005b6100f360048036038101906100ee91906101ee565b61019a565b005b61010f600480360381019061010a9190610217565b6101a4565b005b60008167ffffffffffffffff161415610130576000808190555061014d565b808261013c91906102bb565b67ffffffffffffffff166000819055505b5050565b60008054905090565b808261016691906102ec565b67ffffffffffffffff166000819055505050565b8082610186919061032e565b67ffffffffffffffff166000819055505050565b8060008190555050565b80826101b0919061027d565b67ffffffffffffffff166000819055505050565b6000813590506101d3816103de565b92915050565b6000813590506101e8816103f5565b92915050565b60006020828403121561020057600080fd5b600061020e848285016101c4565b91505092915050565b6000806040838503121561022a57600080fd5b6000610238858286016101d9565b9250506020610249858286016101d9565b9150509250929050565b61025c81610362565b82525050565b60006020820190506102776000830184610253565b92915050565b60006102888261036c565b91506102938361036c565b92508267ffffffffffffffff038211156102b0576102af610380565b5b828201905092915050565b60006102c68261036c565b91506102d18361036c565b9250826102e1576102e06103af565b5b828204905092915050565b60006102f78261036c565b91506103028361036c565b92508167ffffffffffffffff048311821515161561032357610322610380565b5b828202905092915050565b60006103398261036c565b91506103448361036c565b92508282101561035757610356610380565b5b828203905092915050565b6000819050919050565b600067ffffffffffffffff82169050919050565b7f4e487b7100000000000000000000000000000000000000000000000000000000600052601160045260246000fd5b7f4e487b7100000000000000000000000000000000000000000000000000000000600052601260045260246000fd5b6103e781610362565b81146103f257600080fd5b50565b6103fe8161036c565b811461040957600080fd5b5056fea2646970667358221220d43cf92d03ce882ba189c9b06d69e8b343e15513b49112cdf10286296864653b64736f6c63430008010033",
			"opcodes": "PUSH1 0x80 PUSH1 0x40 MSTORE CALLVALUE DUP1 ISZERO PUSH2 0x10 JUMPI PUSH1 0x0 DUP1 REVERT JUMPDEST POP PUSH2 0x442 DUP1 PUSH2 0x20 PUSH1 0x0 CODECOPY PUSH1 0x0 RETURN INVALID PUSH1 0x80 PUSH1 0x40 MSTORE CALLVALUE DUP1 ISZERO PUSH2 0x10 JUMPI PUSH1 0x0 DUP1 REVERT JUMPDEST POP PUSH1 0x4 CALLDATASIZE LT PUSH2 0x62 JUMPI PUSH1 0x0 CALLDATALOAD PUSH1 0xE0 SHR DUP1 PUSH4 0x193C894 EQ PUSH2 0x67 JUMPI DUP1 PUSH4 0x2E64CEC1 EQ PUSH2 0x83 JUMPI DUP1 PUSH4 0x33376EB8 EQ PUSH2 0xA1 JUMPI DUP1 PUSH4 0x4925DF20 EQ PUSH2 0xBD JUMPI DUP1 PUSH4 0x6057361D EQ PUSH2 0xD9 JUMPI DUP1 PUSH4 0xFCA684C7 EQ PUSH2 0xF5 JUMPI JUMPDEST PUSH1 0x0 DUP1 REVERT JUMPDEST PUSH2 0x81 PUSH1 0x4 DUP1 CALLDATASIZE SUB DUP2 ADD SWAP1 PUSH2 0x7C SWAP2 SWAP1 PUSH2 0x217 JUMP JUMPDEST PUSH2 0x111 JUMP JUMPDEST STOP JUMPDEST PUSH2 0x8B PUSH2 0x151 JUMP JUMPDEST PUSH1 0x40 MLOAD PUSH2 0x98 SWAP2 SWAP1 PUSH2 0x262 JUMP JUMPDEST PUSH1 0x40 MLOAD DUP1 SWAP2 SUB SWAP1 RETURN JUMPDEST PUSH2 0xBB PUSH1 0x4 DUP1 CALLDATASIZE SUB DUP2 ADD SWAP1 PUSH2 0xB6 SWAP2 SWAP1 PUSH2 0x217 JUMP JUMPDEST PUSH2 0x15A JUMP JUMPDEST STOP JUMPDEST PUSH2 0xD7 PUSH1 0x4 DUP1 CALLDATASIZE SUB DUP2 ADD SWAP1 PUSH2 0xD2 SWAP2 SWAP1 PUSH2 0x217 JUMP JUMPDEST PUSH2 0x17A JUMP JUMPDEST STOP JUMPDEST PUSH2 0xF3 PUSH1 0x4 DUP1 CALLDATASIZE SUB DUP2 ADD SWAP1 PUSH2 0xEE SWAP2 SWAP1 PUSH2 0x1EE JUMP JUMPDEST PUSH2 0x19A JUMP JUMPDEST STOP JUMPDEST PUSH2 0x10F PUSH1 0x4 DUP1 CALLDATASIZE SUB DUP2 ADD SWAP1 PUSH2 0x10A SWAP2 SWAP1 PUSH2 0x217 JUMP JUMPDEST PUSH2 0x1A4 JUMP JUMPDEST STOP JUMPDEST PUSH1 0x0 DUP2 PUSH8 0xFFFFFFFFFFFFFFFF AND EQ ISZERO PUSH2 0x130 JUMPI PUSH1 0x0 DUP1 DUP2 SWAP1 SSTORE POP PUSH2 0x14D JUMP JUMPDEST DUP1 DUP3 PUSH2 0x13C SWAP2 SWAP1 PUSH2 0x2BB JUMP JUMPDEST PUSH8 0xFFFFFFFFFFFFFFFF AND PUSH1 0x0 DUP2 SWAP1 SSTORE POP JUMPDEST POP POP JUMP JUMPDEST PUSH1 0x0 DUP1 SLOAD SWAP1 POP SWAP1 JUMP JUMPDEST DUP1 DUP3 PUSH2 0x166 SWAP2 SWAP1 PUSH2 0x2EC JUMP JUMPDEST PUSH8 0xFFFFFFFFFFFFFFFF AND PUSH1 0x0 DUP2 SWAP1 SSTORE POP POP POP JUMP JUMPDEST DUP1 DUP3 PUSH2 0x186 SWAP2 SWAP1 PUSH2 0x32E JUMP JUMPDEST PUSH8 0xFFFFFFFFFFFFFFFF AND PUSH1 0x0 DUP2 SWAP1 SSTORE POP POP POP JUMP JUMPDEST DUP1 PUSH1 0x0 DUP2 SWAP1 SSTORE POP POP JUMP JUMPDEST DUP1 DUP3 PUSH2 0x1B0 SWAP2 SWAP1 PUSH2 0x27D JUMP JUMPDEST PUSH8 0xFFFFFFFFFFFFFFFF AND PUSH1 0x0 DUP2 SWAP1 SSTORE POP POP POP JUMP JUMPDEST PUSH1 0x0 DUP2 CALLDATALOAD SWAP1 POP PUSH2 0x1D3 DUP2 PUSH2 0x3DE JUMP JUMPDEST SWAP3 SWAP2 POP POP JUMP JUMPDEST PUSH1 0x0 DUP2 CALLDATALOAD SWAP1 POP PUSH2 0x1E8 DUP2 PUSH2 0x3F5 JUMP JUMPDEST SWAP3 SWAP2 POP POP JUMP JUMPDEST PUSH1 0x0 PUSH1 0x20 DUP3 DUP5 SUB SLT ISZERO PUSH2 0x200 JUMPI PUSH1 0x0 DUP1 REVERT JUMPDEST PUSH1 0x0 PUSH2 0x20E DUP5 DUP3 DUP6 ADD PUSH2 0x1C4 JUMP JUMPDEST SWAP2 POP POP SWAP3 SWAP2 POP POP JUMP JUMPDEST PUSH1 0x0 DUP1 PUSH1 0x40 DUP4 DUP6 SUB SLT ISZERO PUSH2 0x22A JUMPI PUSH1 0x0 DUP1 REVERT JUMPDEST PUSH1 0x0 PUSH2 0x238 DUP6 DUP3 DUP7 ADD PUSH2 0x1D9 JUMP JUMPDEST SWAP3 POP POP PUSH1 0x20 PUSH2 0x249 DUP6 DUP3 DUP7 ADD PUSH2 0x1D9 JUMP JUMPDEST SWAP2 POP POP SWAP3 POP SWAP3 SWAP1 POP JUMP JUMPDEST PUSH2 0x25C DUP2 PUSH2 0x362 JUMP JUMPDEST DUP3 MSTORE POP POP JUMP JUMPDEST PUSH1 0x0 PUSH1 0x20 DUP3 ADD SWAP1 POP PUSH2 0x277 PUSH1 0x0 DUP4 ADD DUP5 PUSH2 0x253 JUMP JUMPDEST SWAP3 SWAP2 POP POP JUMP JUMPDEST PUSH1 0x0 PUSH2 0x288 DUP3 PUSH2 0x36C JUMP JUMPDEST SWAP2 POP PUSH2 0x293 DUP4 PUSH2 0x36C JUMP JUMPDEST SWAP3 POP DUP3 PUSH8 0xFFFFFFFFFFFFFFFF SUB DUP3 GT ISZERO PUSH2 0x2B0 JUMPI PUSH2 0x2AF PUSH2 0x380 JUMP JUMPDEST JUMPDEST DUP3 DUP3 ADD SWAP1 POP SWAP3 SWAP2 POP POP JUMP JUMPDEST PUSH1 0x0 PUSH2 0x2C6 DUP3 PUSH2 0x36C JUMP JUMPDEST SWAP2 POP PUSH2 0x2D1 DUP4 PUSH2 0x36C JUMP JUMPDEST SWAP3 POP DUP3 PUSH2 0x2E1 JUMPI PUSH2 0x2E0 PUSH2 0x3AF JUMP JUMPDEST JUMPDEST DUP3 DUP3 DIV SWAP1 POP SWAP3 SWAP2 POP POP JUMP JUMPDEST PUSH1 0x0 PUSH2 0x2F7 DUP3 PUSH2 0x36C JUMP JUMPDEST SWAP2 POP PUSH2 0x302 DUP4 PUSH2 0x36C JUMP JUMPDEST SWAP3 POP DUP2 PUSH8 0xFFFFFFFFFFFFFFFF DIV DUP4 GT DUP3 ISZERO ISZERO AND ISZERO PUSH2 0x323 JUMPI PUSH2 0x322 PUSH2 0x380 JUMP JUMPDEST JUMPDEST DUP3 DUP3 MUL SWAP1 POP SWAP3 SWAP2 POP POP JUMP JUMPDEST PUSH1 0x0 PUSH2 0x339 DUP3 PUSH2 0x36C JUMP JUMPDEST SWAP2 POP PUSH2 0x344 DUP4 PUSH2 0x36C JUMP JUMPDEST SWAP3 POP DUP3 DUP3 LT ISZERO PUSH2 0x357 JUMPI PUSH2 0x356 PUSH2 0x380 JUMP JUMPDEST JUMPDEST DUP3 DUP3 SUB SWAP1 POP SWAP3 SWAP2 POP POP JUMP JUMPDEST PUSH1 0x0 DUP2 SWAP1 POP SWAP2 SWAP1 POP JUMP JUMPDEST PUSH1 0x0 PUSH8 0xFFFFFFFFFFFFFFFF DUP3 AND SWAP1 POP SWAP2 SWAP1 POP JUMP JUMPDEST PUSH32 0x4E487B7100000000000000000000000000000000000000000000000000000000 PUSH1 0x0 MSTORE PUSH1 0x11 PUSH1 0x4 MSTORE PUSH1 0x24 PUSH1 0x0 REVERT JUMPDEST PUSH32 0x4E487B7100000000000000000000000000000000000000000000000000000000 PUSH1 0x0 MSTORE PUSH1 0x12 PUSH1 0x4 MSTORE PUSH1 0x24 PUSH1 0x0 REVERT JUMPDEST PUSH2 0x3E7 DUP2 PUSH2 0x362 JUMP JUMPDEST DUP2 EQ PUSH2 0x3F2 JUMPI PUSH1 0x0 DUP1 REVERT JUMPDEST POP JUMP JUMPDEST PUSH2 0x3FE DUP2 PUSH2 0x36C JUMP JUMPDEST DUP2 EQ PUSH2 0x409 JUMPI PUSH1 0x0 DUP1 REVERT JUMPDEST POP JUMP INVALID LOG2 PUSH5 0x6970667358 0x22 SLT KECCAK256 0xD4 EXTCODECOPY 0xF9 0x2D SUB 0xCE DUP9 0x2B LOG1 DUP10 0xC9 0xB0 PUSH14 0x69E8B343E15513B49112CDF10286 0x29 PUSH9 0x64653B64736F6C6343 STOP ADDMOD ADD STOP CALLER "
		},
		"gasEstimates": {
			"creation": {
				"codeDepositCost": "218000",
				"executionCost": "263",
				"totalCost": "218263"
			},
			"external": {
				"addition(uint64,uint64)": "infinite",
				"division(uint64,uint64)": "infinite",
				"multiplication(uint64,uint64)": "infinite",
				"retrieve()": "1137",
				"store(uint256)": "20486",
				"subtraction(uint64,uint64)": "infinite"
			}
		},
		"methodIdentifiers": {
			"addition(uint64,uint64)": "fca684c7",
			"division(uint64,uint64)": "0193c894",
			"multiplication(uint64,uint64)": "33376eb8",
			"retrieve()": "2e64cec1",
			"store(uint256)": "6057361d",
			"subtraction(uint64,uint64)": "4925df20"
		}
	},
	"abi": [
		{
			"inputs": [
				{
					"internalType": "uint64",
					"name": "num1",
					"type": "uint64"
				},
				{
					"internalType": "uint64",
					"name": "num2",
					"type": "uint64"
				}
			],
			"name": "addition",
			"outputs": [],
			"stateMutability": "nonpayable",
			"type": "function"
		},
		{
			"inputs": [
				{
					"internalType": "uint64",
					"name": "num1",
					"type": "uint64"
				},
				{
					"internalType": "uint64",
					"name": "num2",
					"type": "uint64"
				}
			],
			"name": "division",
			"outputs": [],
			"stateMutability": "nonpayable",
			"type": "function"
		},
		{
			"inputs": [
				{
					"internalType": "uint64",
					"name": "num1",
					"type": "uint64"
				},
				{
					"internalType": "uint64",
					"name": "num2",
					"type": "uint64"
				}
			],
			"name": "multiplication",
			"outputs": [],
			"stateMutability": "nonpayable",
			"type": "function"
		},
		{
			"inputs": [],
			"name": "retrieve",
			"outputs": [
				{
					"internalType": "uint256",
					"name": "",
					"type": "uint256"
				}
			],
			"stateMutability": "view",
			"type": "function"
		},
		{
			"inputs": [
				{
					"internalType": "uint256",
					"name": "num",
					"type": "uint256"
				}
			],
			"name": "store",
			"outputs": [],
			"stateMutability": "nonpayable",
			"type": "function"
		},
		{
			"inputs": [
				{
					"internalType": "uint64",
					"name": "num1",
					"type": "uint64"
				},
				{
					"internalType": "uint64",
					"name": "num2",
					"type": "uint64"
				}
			],
			"name": "subtraction",
			"outputs": [],
			"stateMutability": "nonpayable",
			"type": "function"
		}
	]
}